:020000040800F2
:10000000000001208D820008E1820008ED820008D6
:10001000F5820008FD82000805830008000000004A
:100020000000000000000000000000000D83000838
:1000300019830008000000002583000831830008B0
:10004000DD820008DD820008DD820008DD82000814
:10005000DD820008DD820008DD820008DD82000804
:10006000DD820008DD820008DD820008DD820008F4
:10007000DD820008DD820008DD820008DD820008E4
:10008000DD820008DD820008DD820008DD820008D4
:10009000DD820008DD820008DD820008DD820008C4
:1000A000DD820008DD820008DD820008DD820008B4
:1000B00079530008DD53000869520008DD8200080A
:1000C000DD820008DD820008DD820008DD82000894
:1000D000DD820008DD820008DD820008DD82000884
:1000E000DD820008DD820008DD820008DD82000874
:1000F000DD820008DD820008DD820008DD82000864
:10010000DD820008DD820008DD820008DD82000853
:10011000DD820008DD820008DD820008DD82000843
:10012000DD820008DD820008DD820008DD82000833
:1001300000000000000000000000000000000000BF
:1001400000000000000000000000000000000000AF
:10015000000000000000000000000000000000009F
:10016000000000000000000000000000000000008F
:10017000000000000000000000000000000000007F
:10018000000000000000000000000000000000006F
:10019000000000000000000000000000000000005F
:1001A000000000000000000000000000000000004F
:1001B000000000000000000000000000000000003F
:1001C000000000000000000000000000000000002F
:1001D000000000000000000000000000000000001F
:0401E0005FF8E0F1F3
:1001E800044B05481B1A062B02D9044B03B11847C8
:1001F800704700BF270900202409002000000000E4
:1002080005490648091A891001EBD171491002D035
:10021800034B03B118477047240900202409002024
:100228000000000010B5064C237843B9FFF7D8FF4B
:10023800044B13B10448AFF300800123237010BDB1
:10024800240900200000000084EA000808B5084BD3
:100258001BB108490848AFF300800848036813B980
:10026800BDE80840CCE7064B002BF9D09847F7E7E4
:10027800000000002809002084EA00082409002062
:100288000000000081F0004102E000BF83F000435D
:1002980030B54FEA41044FEA430594EA050F08BF19
:1002A80090EA020F1FBF54EA000C55EA020C7FEADD
:1002B800645C7FEA655C00F0E2804FEA5454D4EB5A
:1002C8005555B8BF6D420CDD2C4480EA020281EA24
:1002D800030382EA000083EA010180EA020281EA5C
:1002E8000303362D88BF30BD11F0004F4FEA0131AE
:1002F8004FF4801C4CEA113102D0404261EB4101BD
:1003080013F0004F4FEA03334CEA133302D0524242
:1003180063EB430394EA050F00F0A780A4F10104FE
:10032800D5F1200E0DDB02FA0EFC22FA05F2801838
:1003380041F1000103FA0EF2801843FA05F359411E
:100348000EE0A5F120050EF1200E012A03FA0EFC9D
:1003580028BF4CF0020C43FA05F3C01851EBE371C7
:1003680001F0004507D54FF0000EDCF1000C7EEBE4
:1003780000006EEB0101B1F5801F1BD3B1F5001F22
:100388000CD349085FEA30004FEA3C0C04F1010441
:100398004FEA445212F5800F80F09A80BCF1004F6A
:1003A80008BF5FEA500C50F1000041EB045141EAEC
:1003B800050130BD5FEA4C0C404141EB010111F4ED
:1003C800801FA4F10104E9D191F0000F04BF014698
:1003D8000020B1FA81F308BF2033A3F10B03B3F176
:1003E80020020CDA0C3208DD02F1140CC2F10C0206
:1003F80001FA0CF021FA02F10CE002F11402D8BF64
:10040800C2F1200C01FA02F120FA0CFCDCBF41EA2F
:100418000C019040E41AA2BF01EB0451294330BDFE
:100428006FEA04041F3C1CDA0C340EDC04F11404DB
:10043800C4F1200220FA04F001FA02F340EA0300B2
:1004480021FA04F345EA030130BDC4F10C04C4F1F8
:10045800200220FA02F001FA04F340EA03002946D8
:1004680030BD21FA04F0294630BD94F0000F83F422
:10047800801306BF81F480110134013D4EE77FEA05
:10048800645C18BF7FEA655C29D094EA050F08BF51
:1004980090EA020F05D054EA000C04BF1946104632
:1004A80030BD91EA030F1EBF0021002030BD5FEA76
:1004B800545C05D14000494128BF41F0004130BD9E
:1004C80014F580043CBF01F5801130BD01F00045F2
:1004D80045F0FE4141F470014FF0000030BD7FEA65
:1004E800645C1ABF194610467FEA655C1CBF0B4660
:1004F800024650EA013406BF52EA033591EA030F77
:1005080041F4002130BD00BF90F0000F04BF00216E
:10051800704730B54FF4806404F132044FF00005A1
:100528004FF0000150E700BF90F0000F04BF00211A
:10053800704730B54FF4806404F1320410F0004580
:1005480048BF40424FF000013EE700BF42004FEA7B
:10055800E2014FEA31014FEA02701FBF12F07F43F8
:1005680093F07F4F81F06051704792F0000F14BFF5
:1005780093F07F4F704730B54FF4607401F0004539
:1005880021F0004120E700BF50EA010208BF704790
:1005980030B54FF000050AE050EA010208BF704785
:1005A80030B511F0004502D5404261EB41014FF4EE
:1005B800806404F132045FEA915C3FF4DCAE4FF0F2
:1005C80003025FEADC0C18BF03325FEADC0C18BFD9
:1005D800033202EBDC02C2F1200300FA03FC20FA2A
:1005E80002F001FA03FE40EA0E0021FA02F1144477
:1005F800C1E600BF70B54FF0FF0C4CF4E06C1CEA8C
:1006080011541DBF1CEA135594EA0C0F95EA0C0F00
:1006180000F0DEF82C4481EA030621EA4C5123EA73
:100628004C5350EA013518BF52EA033541F48011A2
:1006380043F4801338D0A0FB02CE4FF00005E1FB55
:1006480002E506F00042E0FB03E54FF00006E1FB9F
:1006580003569CF0000F18BF4EF0010EA4F1FF04E2
:10066800B6F5007F64F5407404D25FEA4E0E6D4122
:1006780046EB060642EAC62141EA55514FEAC52033
:1006880040EA5E504FEACE2EB4F1FD0C88BFBCF5AF
:10069800E06F1ED8BEF1004F08BF5FEA500E50F160
:1006A800000041EB045170BD06F0004646EA010126
:1006B80040EA020081EA0301B4EB5C04C2BFD4EB58
:1006C8000C0541EA045170BD41F480114FF0000E51
:1006D800013C00F3AB8014F1360FDEBF002001F0BF
:1006E800004170BDC4F10004203C35DA0C341BDC39
:1006F80004F11404C4F1200500FA05F320FA04F00B
:1007080001FA05F240EA020001F0004221F000413E
:1007180010EBD37021FA04F642EB06015EEA430EB1
:1007280008BF20EAD37070BDC4F10C04C4F12005E1
:1007380000FA04F320FA05F001FA04F240EA020094
:1007480001F0004110EBD37041F100015EEA430E65
:1007580008BF20EAD37070BDC4F1200500FA05F285
:100768004EEA020E20FA04F301FA05F243EA020304
:1007780021FA04F001F0004121FA04F220EA020013
:1007880000EBD3705EEA430E08BF20EAD37070BD59
:1007980094F0000F0FD101F00046400041EB010139
:1007A80011F4801F08BF013CF7D041EA060195F01B
:1007B800000F18BF704703F00046520043EB0303D5
:1007C80013F4801F08BF013DF7D043EA06037047C2
:1007D80094EA0C0F0CEA135518BF95EA0C0F0CD0CD
:1007E80050EA410618BF52EA4306D1D181EA030113
:1007F80001F000414FF0000070BD50EA410606BF0D
:100808001046194652EA430619D094EA0C0F02D151
:1008180050EA013613D195EA0C0F05D152EA033696
:100828001CBF104619460AD181EA030101F00041B4
:1008380041F0FE4141F470014FF0000070BD41F0FD
:10084800FE4141F4780170BD70B54FF0FF0C4CF4D7
:10085800E06C1CEA11541DBF1CEA135594EA0C0FF6
:1008680095EA0C0F00F0A7F8A4EB050481EA030E43
:1008780052EA03354FEA013100F088804FEA03332A
:100888004FF0805545EA131343EA12634FEA0222F8
:1008980045EA111545EA10654FEA00260EF00041B9
:1008A8009D4208BF964244F1FD0404F5407402D20B
:1008B8005B084FEA3202B61A65EB03055B084FEA9C
:1008C80032024FF480104FF4002CB6EB020E75EB99
:1008D800030E22BFB61A754640EA0C005B084FEAC1
:1008E8003202B6EB020E75EB030E22BFB61A75463E
:1008F80040EA5C005B084FEA3202B6EB020E75EB89
:10090800030E22BFB61A754640EA9C005B084FEA00
:100918003202B6EB020E75EB030E22BFB61A75460D
:1009280040EADC0055EA060E18D04FEA051545EAFC
:1009380016754FEA06164FEAC30343EA52734FEAA5
:10094800C2025FEA1C1CC0D111F4801F0BD141EA1E
:1009580000014FF000004FF0004CB6E711F4801F83
:1009680004BF01430020B4F1FD0C88BFBCF5E06F63
:100978003FF6AFAEB5EB030C04BFB6EB020C5FEA73
:10098800500C50F1000041EB045170BD0EF0004EC8
:100998004EEA113114EB5C04C2BFD4EB0C0541EAFA
:1009A800045170BD41F480114FF0000E013C90E6F7
:1009B80045EA060E8DE60CEA135594EA0C0F08BFBB
:1009C80095EA0C0F3FF43BAF94EA0C0F0AD150EABA
:1009D80001347FF434AF95EA0C0F7FF425AF10464D
:1009E80019462CE795EA0C0F06D152EA03353FF475
:1009F800FDAE1046194622E750EA410618BF52EAF2
:100A080043067FF4C5AE50EA41047FF40DAF52EAC5
:100A180043057FF4EBAE12E74FEA410212F50012EC
:100A280015D211D56FF47873B3EB625212D94FEA2D
:100A3800C12343F0004343EA505311F0004F23FA17
:100A480002F018BF404270474FF00000704750EA6C
:100A5800013005D111F0004008BF6FF00040704729
:100A68004FF00000704700BF4FEA4102B2F1E04387
:100A780024BFB3F5001CDCF1FE5C0DD901F0004C7D
:100A88004FEAC0024CEA5070B2F1004F40EB8300CD
:100A980008BF20F00100704711F0804F21D113F1F9
:100AA8003872BCBF01F00040704741F480114FEA32
:100AB8005252C2F11802C2F1200C10FA0CF320FABB
:100AC80002F018BF40F001004FEAC1234FEAD323D8
:100AD80003FA0CFC40EA0C0023FA02F34FEA430342
:100AE800CCE77FEA625307D150EA01331EBF4FF0CB
:100AF800FE4040F44000704701F0004040F0FE40E6
:100B080040F40000704700BF80F0004002E000BFE2
:100B180081F0004142001FBF5FEA410392EA030FE0
:100B28007FEA226C7FEA236C6AD04FEA1262D2EB2A
:100B38001363C1BFD218414048404140B8BF5B422F
:100B4800192B88BF704710F0004F40F4000020F0C8
:100B58007F4018BF404211F0004F41F4000121F0DE
:100B68007F4118BF494292EA030F3FD0A2F1010228
:100B780041FA03FC10EB0C00C3F1200301FA03F166
:100B880000F0004302D5494260EB4000B0F5000F89
:100B980013D3B0F1807F06D340084FEA310102F148
:100BA8000102FE2A51D2B1F1004F40EBC25008BFFA
:100BB80020F0010040EA03007047490040EB0000C4
:100BC80010F4000FA2F10102EDD1B0FA80FCACF1F3
:100BD800080CB2EB0C0200FA0CF0AABF00EBC250F2
:100BE80052421843BCBFD0401843704792F0000FE0
:100BF80081F4000106BF80F400000132013BB5E733
:100C08004FEA41037FEA226C18BF7FEA236C21D0A8
:100C180092EA030F04D092F0000F08BF084670470D
:100C280090EA010F1CBF0020704712F07F4F04D1DB
:100C3800400028BF40F00040704712F100723CBFEE
:100C480000F50000704700F0004343F0FE4040F418
:100C5800000070477FEA226216BF08467FEA2363D6
:100C68000146420206BF5FEA412390EA010F40F4C1
:100C7800800070474FF0000304E000BF10F000430D
:100C880048BF40425FEA000C08BF704743F09643F4
:100C980001464FF000001CE050EA010208BF70470F
:100CA8004FF000030AE000BF50EA010208BF704796
:100CB80011F0004302D5404261EB41015FEA010CAB
:100CC80002BF84460146002043F0B64308BFA3F1A3
:100CD8008053A3F50003BCFA8CF2083AA3EBC25385
:100CE80010DB01FA02FC634400FA02FCC2F12002A4
:100CF800BCF1004F20FA02F243EB020008BF20F0DB
:100D08000100704702F1200201FA02FCC2F1200240
:100D180050EA4C0021FA02F243EB020008BF20EA35
:100D2800DC7070474FF0FF0C1CEAD0521EBF1CEA63
:100D3800D15392EA0C0F93EA0C0F6FD01A4480EA51
:100D4800010C400218BF5FEA41211ED04FF000633A
:100D580043EA501043EA5111A0FB01310CF0004066
:100D6800B1F5000F3EBF490041EAD3715B0040EA8C
:100D7800010062F17F02FD2A1DD8B3F1004F40EB5C
:100D8800C25008BF20F00100704790F0000F0CF02F
:100D9800004C08BF49024CEA502040EA51207F3AF3
:100DA800C2BFD2F1FF0340EAC250704740F40000CE
:100DB8004FF00003013A5DDC12F1190FDCBF00F0BF
:100DC80000407047C2F10002410021FA02F1C2F16D
:100DD800200200FA02FC5FEA310040F1000053EA09
:100DE8004C0308BF20EADC70704792F0000F00F057
:100DF800004C02BF400010F4000F013AF9D040EA5D
:100E08000C0093F0000F01F0004C02BF490011F4F0
:100E1800000F013BF9D041EA0C018FE70CEAD153EE
:100E280092EA0C0F18BF93EA0C0F0AD030F0004C6E
:100E380018BF31F0004CD8D180EA010000F0004022
:100E4800704790F0000F17BF90F0004F084691F0E0
:100E5800000F91F0004F14D092EA0C0F01D142021A
:100E68000FD193EA0C0F03D14B0218BF084608D1E3
:100E780080EA010000F0004040F0FE4040F400002D
:100E8800704740F0FE4040F4400070474FF0FF0CC0
:100E98001CEAD0521EBF1CEAD15392EA0C0F93EA07
:100EA8000C0F69D0A2EB030280EA010C49024FEA59
:100EB800402037D04FF0805343EA111143EA101312
:100EC8000CF000408B4238BF5B0042F17D024FF4CA
:100ED800000C8B4224BF5B1A40EA0C00B3EB510FA5
:100EE80024BFA3EB510340EA5C00B3EB910F24BF8E
:100EF800A3EB910340EA9C00B3EBD10F24BFA3EB13
:100F0800D10340EADC001B0118BF5FEA1C1CE0D1DA
:100F1800FD2A3FF650AF8B4240EBC25008BF20F08D
:100F2800010070470CF0004C4CEA50207F32C2BFE1
:100F3800D2F1FF0340EAC250704740F400004FF07E
:100F48000003013A37E792F0000F00F0004C02BFAF
:100F5800400010F4000F013AF9D040EA0C0093F079
:100F6800000F01F0004C02BF490011F4000F013BD3
:100F7800F9D041EA0C0195E70CEAD15392EA0C0F3B
:100F880008D142027FF47DAF93EA0C0F7FF470AF73
:100F9800084676E793EA0C0F04D14B023FF44CAFB6
:100FA80008466EE730F0004C18BF31F0004CCAD14B
:100FB80030F000427FF45CAF31F000437FF43CAF87
:100FC8005FE700BF4FF0FF3C06E000BF4FF0010CA9
:100FD80002E000BF4FF0010C4DF804CD4FEA40028B
:100FE8004FEA41037FEA226C18BF7FEA236C11D0D5
:100FF80001B052EA530C18BF90EA010F58BFB2EB88
:10100800030088BFC81738BF6FEAE17018BF40F007
:10101800010070477FEA226C02D15FEA402C05D1BB
:101028007FEA236CE4D15FEA412CE1D05DF8040B40
:10103800704700BF844608466146FFE70FB5FFF7D3
:10104800C9FF002848BF10F1000F0FBD4DF808ED8B
:10105800FFF7F4FF0CBF012000205DF808FB00BF7C
:101068004DF808EDFFF7EAFF34BF012000205DF8D6
:1010780008FB00BF4DF808EDFFF7E0FF94BF012023
:1010880000205DF808FB00BF4DF808EDFFF7D2FF20
:1010980094BF012000205DF808FB00BF4DF808ED63
:1010A800FFF7C8FF34BF012000205DF808FB00BF30
:1010B8004FEA4002B2F1FE4F0FD34FF09E03B3EB5D
:1010C80012620DD94FEA002343F0004310F0004F9D
:1010D80023FA02F018BF404270474FF000007047F3
:1010E80012F1610F01D1420205D110F0004008BF92
:1010F8006FF0004070474FF00000704703685A00D7
:101108004CBF43F0004323F000431844704700BF2E
:1011180061B32DE9F84F01F1FF3A90460646D146F2
:10112800002707EB090404EBD4746410E500711977
:101138000846FFF7E3FFA245834605F1080030445F
:1011480009D0FFF7DBFFC34500F1FF3005D8404564
:1011580009D2671CE5E7C34505D9A74202D004F1C7
:10116800FF39DEE700210846BDE8F88F08467047DA
:10117800012807D0022807D0044B00280CBF1846C6
:101188000020704702487047024870478D180008D1
:10119800911800089518000830B5254B83B004460F
:1011A8008D1E7BB301A92846AFF3008020B30199B7
:1011B8002A46FFF7ADFF0146F0B1FFF79FFF4B68E6
:1011C800A064012B12D0002B01F1040021DBFFF7F2
:1011D80095FF0023E06423650368002B1DDBFFF700
:1011E8008DFF00232061184603B030BD0023236122
:1011F8000523184603B030BD002323610923184690
:1012080003B030BD0B490C4B0846591AC91001915F
:10121800CEE70123E0642365DEE7C3F30360FFF74D
:10122800A7FF0028206114BF00230923DBE700BFC4
:1012380000000000B8F0000880F10008036810B54D
:10124800DA07044606D49B0700F1480009D500F0E8
:101258005BFC2368590709D51A070ED5DB0613D599
:1012680010BD00F049FC23685907F5D404F1D000FB
:1012780000F052FC23681A07F0D404F5A87000F0B7
:1012880053FC2368DB06EBD404F5E870BDE8104096
:1012980000F08EBC03680BB11844704718467047BD
:1012A80009207047704700BF70B504460D4608E036
:1012B8002A6C2369626121462A460120984708283A
:1012C80008D1296C2046FFF767FF06460028EFD0B3
:1012D80007F028FA0728FBD13046296CFFF7E2FF10
:1012E800281D00F0FDFB00BF2DE9F0470646ADF5CF
:1012F800727D03AD0C1D17460FCC0FC50FCC0FC563
:101308000FCC0FC594E80F0002ACD6F80C80D6F8C5
:10131800189085E80F0000233046216C2360FFF702
:101328003BFF0546002F14BF0A2709277DB1A36B91
:1013380047F010018DE810023246636401203346FD
:10134800C04778BB28460DF5727DBDE8F087236C51
:101358004FF4F072736121467AA800F041FE3369B8
:101368007AAA314638469847889B82468DE810020B
:1013780039466364324633460120C04790B94FF47A
:10138800F0727AA9204600F02BFEBAF1080F06D1B8
:10139800216C3046FFF700FF09270546C6E7BAF17A
:1013A800070F04D009200DF5727DBDE8F0872846A7
:1013B800216CFFF777FF03A800F092FB406C7047A1
:1013C800F0B5CB6BF9B00B640E1D01AD0F460446AA
:1013D8000FCE0FC50FCE0FC50FCE0FC596E80F0065
:1013E8004FF0FF3685E80F00009606E023696A464D
:1013F800214698470828054608D110992046FFF746
:10140800CBFE0028F2D0092079B0F0BD6846FFF77E
:1014180015FF062DF7D139462046FFF745FF00BFD7
:1014280030B4DD6BC160826119461D64002230BC96
:101438005AE700BF70B54369C6680B6426B101223C
:10144800FFF752FF07F06EF903690A4604460D4696
:10145800014602209847072807D0082803D12946C3
:101468002046FFF721FF07F05DF93046296CFFF7AA
:1014780019FF281D00F034FBC2682AB110B4CC6BE8
:1014880000220C6410BC2FE79AE700BF704700BF2A
:10149800836813B1014601201847704700B5042935
:1014A80007D8DFE801F00309060909000BB90F2A7C
:1014B80005D902205DF804FB01205DF804FB00EB70
:1014C800820252681846019B1A605DF804FB00BF4F
:1014D80010B584B0002303AC0A4600941946FFF700
:1014E800DDFF039804B010BD00B5042907D8DFE874
:1014F80001F00309060909000BB90F2A05D90220D2
:101508005DF804FB01205DF804FB019900EB820201
:101518000968184651605DF804FB00BF10B584B037
:1015280004AC44F8042D00230A4600941946FFF73A
:10153800DBFF04B010BD00BFF0B5D36BADF50F7D78
:101548001364151D17AC07460E460FCD0FC40FCDFB
:101558000FC40FCD0FC495E80F004FF0FF3584E896
:101568000F00169511E016A86A46FFF7D7FF314617
:1015780016A8B84780B9049B16AA69460820984758
:101588000528044609D0092806D026996846FFF799
:1015980003FE0C210028E6D0092416A8FFF74EFE0A
:1015A80020460DF50F7DF0BD2DE9F04FCC6C91462E
:1015B80022688BB004340D460792089400F0030BA0
:1015C8001E46002B64D11202032307928DF8256072
:1015D8008DF824302B6DBBF1020F08BFAC6B13F0F4
:1015E800010343D100F00800C2B2039201932768B7
:1015F800002F3DD0022E47D02788B4F8028004344B
:10160800AB6C28F0010A0F2148469A44FFF760FFA7
:10161800824537D827F001039A4450452CBF002053
:1016280001204FEA480808F0020807F0010748EAD5
:101638000708B8F1010F41D038D3B8F1020F1DD116
:10164800236823F000420292BBF1000F79D130B138
:101658000399002900F08180002A00F0A880002B5F
:1016680079DB029B013304EB8304C0E70023019379
:10167800022E40DDFFF714FE002842D009200BB0EF
:10168800BDE8F08F0020CCE7D4F804800834B7E731
:10169800022B9FDC130CD9B212048DF825300223DB
:1016A80004EB810407928DF8243093E7BBF1000F17
:1016B80002D0002840F0B080043498E7BBF1000F56
:1016C80026D1B0B194E80C00991C4FEAD272D5D05B
:1016D80005F158010133069100F09480201DFFF7B1
:1016E800D9FD06AB01462846AFF30080002840F03C
:1016F800B88008347BE707A9484600F0F3FA0028C9
:10170800BCD1019B002B5CD108200BB0BDE8F08F49
:101718000D2148462F6AFFF7DBFE8742E9D1AB6A05
:101728009C42E6D12046FFF7E9FC0F2102464846D5
:10173800FFF7F4FE48462A460021FFF7EFFE072090
:101748009DE70D2148462F6AFFF7C2FE874248D021
:101758002368002B85DA043483E7029B3BB305F149
:101768005803271DCDF810B0DDF80C80A346DDF82E
:1017780008A01C46059602E0B245B04616D0384689
:101788000694FFF787FD06AB014600222846AFF313
:10179800008008F1010604370028EDD0029B5C4662
:1017A8004345DDF810B0059ED2D100E05C464846BE
:1017B8000D21FFF78DFE069B2862AC626B62062046
:1017C8005DE70F214846FFF783FE0E210246484693
:1017D800FFF7A4FE48462A4A0F21FFF79FFE07207D
:1017E8004DE7AB6A9C42B3D1042202990027A318A3
:1017F800A962EF622A636B632368BB421FDB012384
:1018080001932EE748460D21FFF762FE2862069BEA
:101818006B62AC62062032E72046FFF76FFC0434A7
:101828000646AC632846AFF3008000283FF426AF95
:10183800484632460F21FFF771FE07201FE708468A
:10184800013004EB8000FFF759FC0F21024648469F
:10185800FFF764FE48462A463946FFF75FFE072031
:101868000DE707460D214846FFF732FE022F286292
:10187800CDD12B46069A43F82C2F6B62C9E700BFDF
:101888000000000000238FE601238DE602238BE68B
:10189800F0B50446C5B004290DD8DFE801F05703B8
:1018A8000C310F00012B4FEA124695B266D172191E
:1018B800102A40F29F80022045B0F0BD002BFAD1DB
:1018C800102AF8D82368D80600F1C98022AE30461D
:1018D800019200F077F9A06B019A0023012505FA1F
:1018E80003F1114203D00168043046F82310013394
:1018F800042BF4D1A063304600F05AF90020DBE74E
:10190800032BD8D1150C97B2EB19102BD3D8236819
:101918001E0700F1B88022AE30467F0000F026F99D
:1019280006EBC5027B1EA56B57B12946043A51F850
:10193800040B013B42F8040F581CF8D105EB87054E
:101948003046A56300F0F0F80020B5E7002BB2D1CF
:10195800A56B97B2201D012606FA03F1394203F15F
:10196800010302D0296804350160102B00F104003E
:10197800F2D112F400503BD1A5639DE7052B9AD113
:101988007719202F97D80F2E65D92F46002D48D1CB
:101998002A460027002AA06B71DD00EBC20201462F
:1019A80044A800EBC6008C3851F8045B914240F81B
:1019B800045FF9D1084697B13246102E44A938BFC2
:1019C800102201EBC202A2F5C4727900043A00EBBE
:1019D800810150F8045B814242F8045FF9D1012B80
:1019E80047D00F2EA16332D917B102A800F094F89E
:1019F800002061E70F2E3FF65EAF00272268D1076F
:101A08000DD522F00101052B21600193204652D00B
:101A180022F0030240F8482B00F072F8019B002FD7
:101A280051D02268510736D4012B3ED00F2E06D84C
:101A380022A8019300F06CF8019B002FA8D002A8FF
:101A4800019300F06DF8019BC6F11002A2E722A8ED
:101A580000F05AF8C8E7102FCFD9103FCEE723F08F
:101A68001003236004F5E870019200F0ABF8019AC6
:101A78002CE70431A16322A800F03EF8B8E7002F54
:101A88009AD10146ABE723F00803236004F5A87058
:101A980000F06CF83FE7204622F0040240F8D02B13
:101AA800019300F03DF8019BBEE722A8019300F0E6
:101AB80027F8019BC8E741F0020140F8481B00F0F5
:101AC80027F8019BABE7012B03D00F2E3FF660AF41
:101AD800AEE722A8019300F013F8019B58E700BF76
:101AE80000F1340191E838009C46A6464CF8045DA4
:101AF80090E8FF0FE54600BD90EC210B704700BF52
:101B080080EC210B704700BF90EC200B704700BFA2
:101B180080EC200B704700BFD0EC200B704700BF53
:101B2800C0EC200B704700BFF0EC0201F0EC021192
:101B3800F0EC0221F0EC0231F0EC0241F0EC025141
:101B4800F0EC0261F0EC0271F0EC0281F0EC029131
:101B5800F0EC02A1F0EC02B1F0EC02C1F0EC02D121
:101B6800F0EC02E1F0EC02F1704700BFE0EC02019A
:101B7800E0EC0211E0EC0221E0EC0231E0EC024181
:101B8800E0EC0251E0EC0261E0EC0271E0EC028171
:101B9800E0EC0291E0EC02A1E0EC02B1E0EC02C161
:101BA800E0EC02D1E0EC02E1E0EC02F1704700BFAA
:101BB800B0FC0181B0FC0191B0FC01A1B0FC01B105
:101BC800704700BFA0FC0181A0FC0191A0FC01A10D
:101BD800A0FC01B1704700BFEC4600B52DE90050EC
:101BE8002DE9FF1F4FF000032DE90C0001A9FFF7B5
:101BF800E7FBDDF840E012B0704700BFEC4600B5E7
:101C08002DE900502DE9FF1F4FF000032DE90C00CE
:101C180001A9FFF70FFCDDF840E012B0704700BFE4
:101C2800EC4600B52DE900502DE9FF1F4FF00003E9
:101C38002DE90C0001A9FFF71FFCDDF840E012B008
:101C4800704700BFEC4600B52DE900502DE9FF1F95
:101C58004FF000032DE90C0001ABFFF7E1FBDDF8C5
:101C680040E012B0704700BFEC4600B52DE90050C7
:101C78002DE9FF1F4FF000032DE90C0001AAFFF723
:101C88005BFCDDF840E012B0704700BF037A1BB977
:101C9800437A43B9B02070475A1E036802721A0289
:101CA8000260180E70474268013B10B44372136813
:101CB8000321141D01721A024460026010BC180E40
:101CC800704700BF00B585B003AA002300921946EB
:101CD8000C22FFF7E3FB039805B05DF804FB00BF97
:101CE800F0E700BF2DE9F04306460D4685B04FF0FA
:101CF80000082846FFF7CAFFB028044600F0B48061
:101D080020F07F0313F0FF0320D000F0F003802BB6
:101D18007AD0902B35D0A02B48D0B02B5CD0C02BDC
:101D280000F0898000F0F803D02B0BD100F00702F7
:101D3800013242F40022052301213046FFF7A8FDB5
:101D48000028D6D0092005B0BDE8F0830DF10C09B4
:101D580019468700CDF800900D223046FFF79EFB0C
:101D6800FFB2039B043760064CBFDF1BFF1800233C
:101D7800CDF8009019460D2230460397FFF7B4FBC3
:101D8800B7E700F00D030D2BDCD003AF002300F004
:101D98000F02194600973046FFF780FB0023009793
:101DA80019460D223046FFF79FFBA2E7C2434FF4C6
:101DB8007F6302F0070243FA02F2010702EA030214
:101DC8004FF0000348BF42F4804219463046FFF7FF
:101DD8005FFD0028B6D18CE7B1284AD0B22853D08D
:101DE800B32800F0818000F0FC03B42BAAD000F0E7
:101DF80007020132012342F4002219463046FFF758
:101E080047FD00289ED174E72846FFF73FFF2402CC
:101E18002043B0F5004F95D004010023A2B2194623
:101E28003046FFF735FD00288CD114F4004F18BF59
:101E38004FF001085DE7C62862D0C7286CD000F0D3
:101E4800F803C02B7BD0C82800F09180C9287FF404
:101E580079AF2846FFF71AFF020300F00F0002F4DB
:101E680070220130024366E7B8F1000F6ED00020FF
:101E780069E72846FFF70AFF024600283FF462AFE9
:101E880010F0F003B9D05DE700230DF10C090D2225
:101E98001946CDF800903046FFF700FB2846FFF7BB
:101EA800F5FE02064FF002040CD5039B00F07F00FC
:101EB800A040034428460393FFF7E8FE030604F115
:101EC8000704F2D4039B00F07F0000FA04F203F544
:101ED800017400231444CDF8009019460D223046B1
:101EE8000394FFF701FB04E72846FFF7CFFE010341
:101EF80000F00F0001F47021421C01230A437CE723
:101F08002846FFF7C3FE010300F00F0001F470211B
:101F1800421C03230A4370E72846FFF7B7FE024630
:101F280000283FF40FAF10F0F0037FF40BAF04214B
:101F38003046FFF7ADFC00287FF404AFD9E600F087
:101F48000F020132032342F4202256E703AC434632
:101F58000E22414600943046FFF7A0FA009430461E
:101F680043460F224146FFF7BFFA4046EBE62846B4
:101F7800FFF78CFE00F0F00200F00F03103201337F
:101F880043EA0232D7E600BF10B5C36C84B0032021
:101F98005A688DF80C00DC7912020833084601A94A
:101FA80001928DF80D400293FFF79CFE04B010BD1E
:101FB80008B5FFF795FE806C08BD00BF08B5FFF7B0
:101FC8008FFEC36CD87903EB8000083008BD00BFD2
:101FD80008B506F0A7FB00BF08B5FFF7F9FF00BF7B
:101FE800844641EA000313F0030349D1403A23D35E
:101FF8000B6803604B6843608B688360CB68C36081
:102008000B6903614B6943618B698361CB69C36168
:102018000B6A03624B6A43628B6A8362CB6AC36250
:102028000B6B03634B6B43638B6B8363CB6BC36338
:1020380040304031403ADBD230320BD30B6803607A
:102048004B6843608B688360CB68C3601030103185
:10205800103AF3D20C3205D351F8043B40F8043B54
:10206800043AF9D2043208D0D2071CBF11F8013B58
:1020780000F8013B01D30B8803806046704700BF1E
:10208800082A13D38B07B1D010F00303AED0C3F1E5
:102098000403D21ADB071CBF11F8013B00F8013B0F
:1020A800A4D331F8023B20F8023B9FE7043AD9D386
:1020B800013A11F8013B00F8013BF9D20B780370A3
:1020C8004B7843708B788370604670474FF0FF3CC5
:1020D80006E000BF4FF0010C02E000BF4FF0010C1A
:1020E8004DF804CD4FEA410C7FEA6C5C4FEA430C93
:1020F80018BF7FEA6C5C1BD001B050EA410C0CBFE2
:1021080052EA430C91EA030F02BF90EA020F002043
:10211800704710F1000F91EA030F58BF994208BFAA
:1021280090422CBFD8176FEAE37040F00100704767
:102138004FEA410C7FEA6C5C02D150EA013C07D1BE
:102148004FEA430C7FEA6C5CD6D152EA033CD3D009
:102158005DF8040B704700BF8446104662468C4603
:102168001946634600E000BF01B5FFF7B7FF002836
:1021780048BF10F1000F01BD4DF808EDFFF7F4FF5F
:102188000CBF012000205DF808FB00BF4DF808EDEA
:10219800FFF7EAFF34BF012000205DF808FB00BF0D
:1021A8004DF808EDFFF7E0FF94BF012000205DF82F
:1021B80008FB00BF4DF808EDFFF7CEFF94BF0120E4
:1021C80000205DF808FB00BF4DF808EDFFF7C4FFDD
:1021D80034BF012000205DF808FB00BF53B94AB99D
:1021E800002908BF00281CBF4FF0FF314FF0FF3017
:1021F80000F082B9ADF1080C6DE904CE00F006F8E4
:10220800DDF804E0DDE9022304B070472DE9F04F62
:102218008C460C460546099E002B4FD18A4217462C
:102228006BD9B2FA82FEBEF1000F0BD0CEF12005B9
:1022380020FA05F501FA0EF345EA030C02FA0EF747
:1022480000FA0EF5390CBCFBF1F0BAB201FB10C371
:1022580000FB02F84FEA154C4CEA0344A04509D9A3
:10226800E41900F1FF3380F02881A04540F2258170
:1022780002383C44C8EB0404B4FBF1F301FB134CF3
:1022880003FB02F2ACB244EA0C418A4209D9C919EB
:1022980003F1FF3480F00F818A4240F20C81023B47
:1022A80039448A1A43EA00400021002E63D022FAFA
:1022B8000EF2002386E80C00BDE8F08F8B4207D9A8
:1022C800002E56D0002186E811000846BDE8F08FA0
:1022D800B3FA83F1002940F09380A34202D38242EB
:1022E80000F2FE80851A64EB03039C460120002E51
:1022F80041D086E82010BDE8F08F12B90127B7FB5E
:10230800F2F7B7FA87FEBEF1000F36D1E41B4FEAA9
:1023180017481FFA87F90121B4FBF8F308FB1344A7
:1023280009FB03F24FEA154C4CEA0444A24207D9D0
:10233800E41903F1FF3002D2A24200F2D38003462F
:10234800A41AB4FBF8F008FB104809FB00F9ACB27A
:1023580044EA0842914507D9D21900F1FF3402D264
:10236800914500F2BA802046C9EB020240EA0340D8
:102378009BE731463046BDE8F08F07FA0EF7CEF1FD
:10238800200C24FA0CF34FEA1748B3FBF8FA1FFAAB
:1023980087F908FB1A3520FA0CFC04FA0EF40AFB3C
:1023A80009FB4CEA040C4FEA1C4242EA05439B45F0
:1023B80000FA0EF50AD9DB190AF1FF3280F08B809A
:1023C8009B4540F28880AAF1020A3B44CBEB030309
:1023D800B3FBF8F008FB103300FB09F41FFA8CFC80
:1023E8004CEA03439C4207D9DB1900F1FF326ED255
:1023F8009C426CD902383B441C1B40EA0A418BE7DB
:10240800C1F1200E8B4022FA0EFC4CEA030C24FA90
:102418000EF74FEA1C49B7FBF9FA1FFA8CF309FBD0
:102428001A7720FA0EF88C400AFB03F548EA0404F0
:102438004FEA144848EA0747BD4202FA01F200FA97
:1024480001FB09D917EB0C070AF1FF3041D2BD4255
:102458003FD9AAF1020A67447F1BB7FBF9F509FBCC
:10246800157705FB03F3A4B244EA0747BB4208D932
:1024780017EB0C0705F1FF3027D2BB4225D9023DE7
:10248800674445EA0A40A0FB0289FF1A4F454546C2
:102498004C4614D329D066B3BBEB050367EB04079E
:1024A80007FA0EFECB40CF404EEA030386E88800C9
:1024B8000021BDE8F08F2346F3E61846DAE6B8EBCC
:1024C800020569EB0C040138E5E70546D9E7104633
:1024D80092E78246C0E7924678E702383A4443E7F3
:1024E800084604E7023B3C442AE7C345E7D33C4699
:1024F800D1E73146BDE8F08F704700BF80B487B0A0
:1025080000AF786000237B6100233B610F23FB60F1
:102518007B68DB78002B3AD0274BDB68DB4303F47E
:10252800E0631B0A7B617B69C3F104033B61FA68C2
:102538007B6922FA03F3FB607B685B781A463B6988
:1025480002FA03F37B617B689B781A46FB681340A9
:102558007A6913437B617B691B017B61174A7B683E
:102568001B787969C9B213440A4683F80023134AD1
:102578007B681B785B09DBB218467B681B7803F025
:102588001F03012101FA03F342F820300FE00B4941
:102598007B681B785B09DBB218467B681B7803F005
:1025A8001F0301229A4000F1200341F8232000BFB5
:1025B8001C37BD4680BC704700ED00E000E100E03C
:1025C80080B483B000AF7860396007493B6823F076
:1025D800604323F07F037A6813438B6000BF0C3796
:1025E800BD4680BC704700BF00ED00E080B582B0FA
:1025F80000AF78607B68174A93420AD101214FF4F3
:10260800007000F0C7FE00214FF4007000F0C2FE19
:102618001CE07B68104A93420AD101214FF4806084
:1026280000F0B8FE00214FF4806000F0B3FE0DE02A
:102638007B680A4A934209D101214FF4004000F017
:10264800A9FE00214FF4004000F0A4FE00BF0837A7
:10265800BD4680BD0024014000280140003C0140E7
:1026680080B485B000AF786039600023FB60002338
:10267800FB727B685B68FB60FB6823F4702323F4C0
:102688008073FB603B681A683B681B791B02134325
:10269800FA681343FB607B68FA685A607B689B683A
:1026A800FB60FA68164B1340FB603B68DA683B68CE
:1026B8009B681A433B685B795B001343FA681343D2
:1026C800FB607B68FA689A607B68DB6AFB60FB6882
:1026D80023F47003FB603B681B7C013BDAB2FB7A96
:1026E8001343FB72FB7A1B05FA681343FB607B6894
:1026F800FA68DA6200BF1437BD4680BC704700BF75
:10270800FDF7F1FF80B483B000AF78600B46FB7033
:10271800FB78002B06D07B689B6843F001027B683E
:102728009A6005E07B689B6823F001027B689A60E9
:1027380000BF0C37BD4680BC704700BF80B483B073
:1027480000AF78607B689B6843F008027B689A60FA
:1027580000BF0C37BD4680BC704700BF80B485B051
:1027680000AF78600023FB737B689B6803F0080365
:10277800002B02D00123FB7301E00023FB73FB7BDA
:1027880018461437BD4680BC704700BF80B483B07C
:1027980000AF78607B689B6843F004027B689A60AE
:1027A80000BF0C37BD4680BC704700BF80B485B001
:1027B80000AF78600023FB737B689B6803F0040319
:1027C800002B02D00123FB7301E00023FB73FB7B8A
:1027D80018461437BD4680BC704700BF80B483B02C
:1027E80000AF78600B46FB70FB78002B06D07B6847
:1027F8009B6843F4A0027B689A6005E07B689B684D
:1028080023F4A0027B689A6000BF0C37BD4680BCE9
:10281800704700BF80B485B000AF786008461146A5
:102828001A460346FB700B46BB7013467B700023A9
:10283800FB600023BB60FB78092B23D97B68DB682E
:10284800FB60FB78A3F10A0213465B0013440722DE
:1028580002FA03F3BB60BB68DB43FA681340FB6012
:102868007978FB78A3F10A0213465B00134401FA56
:1028780003F3BB60FA68BB681343FB607B68FA68C4
:10288800DA601EE07B681B69FB60FA7813465B0020
:102898001344072202FA03F3BB60BB68DB43FA6800
:1028A8001340FB607978FA7813465B00134401FA09
:1028B80003F3BB60FA68BB681343FB607B68FA6884
:1028C8001A61BB78062B21D87B685B6BFB60BB78F1
:1028D8005A1E13469B0013441F2202FA03F3BB60DF
:1028E800BB68DB43FA681340FB60F978BB785A1E73
:1028F80013469B00134401FA03F3BB60FA68BB68F4
:102908001343FB607B68FA685A6347E0BB780C2B7B
:1029180021D87B681B6BFB60BB78DA1F13469B00D2
:1029280013441F2202FA03F3BB60BB68DB43FA6857
:102938001340FB60F978BB78DA1F13469B001344F9
:1029480001FA03F3BB60FA68BB681343FB607B685A
:10295800FA681A6322E07B68DB6AFB60BB78A3F144
:102968000D0213469B0013441F2202FA03F3BB60B7
:10297800BB68DB43FA681340FB60F978BB78A3F1C6
:102988000D0213469B00134401FA03F3BB60FA6877
:10299800BB681343FB607B68FA68DA6200BF1437D0
:1029A800BD4680BC704700BF80B483B000AF78607C
:1029B8007B68DB6C9BB218460C37BD4680BC704701
:1029C80080B485B000AF78600B46FB700023FB73C2
:1029D8007B681A68FB781340002B02D00123FB7335
:1029E80001E00023FB73FB7B18461437BD4680BC0F
:1029F800704700BF80B485B000AF786039600023AD
:102A0800FB607B681B68FB60FB6823F4FF4323F0D3
:102A18007003FB603B689A683B681B6A1A433B6813
:102A28001B691A433B685B691A433B689B691A43F5
:102A38003B68DB691A433B685B6A1A433B689B6ADD
:102A48001343FA681343FB607B68FA681A603B68B3
:102A5800DA687B685A603B681A687B689A603B68EA
:102A68005A687B68DA6000BF1437BD4680BC70477F
:102A780080B483B000AF78607B6800221A607B68FE
:102A880000225A607B6800229A607B680022DA6024
:102A98007B6800221A617B6800225A617B680022E9
:102AA8009A617B680022DA617B6800221A627B687F
:102AB80000225A627B6800229A6200BF0C37BD462A
:102AC80080BC704780B483B000AF78600B46FB7061
:102AD800FB78002B06D07B681B6843F001027B68FB
:102AE8001A6006E07B681A684FF6FE7313407A682E
:102AF800136000BF0C37BD4680BC704780B483B0FC
:102B080000AF78607B685B689BB218460C37BD469F
:102B180080BC704780B485B000AF78600023FB604C
:102B2800094B1B68FB60FB6803F03803FB60FA681D
:102B38007B681343FB60044AFB68136000BF1437CB
:102B4800BD4680BC704700BF0020024080B483B0FF
:102B580000AF7860084A084B1B6823F01003136025
:102B68000549054B1A687B6813430B6000BF0C3797
:102B7800BD4680BC704700BF0020024080B400AF53
:102B8800044B054A5A60034B044A5A6000BFBD46CD
:102B980080BC70470020024023016745AB89EFCD18
:102BA80080B584B000AF78600423FB734FF4302005
:102BB80000F0AAF80346FB73FB7B042B1BD1104AD9
:102BC8000F4B1B6943F0020313610D4A7B68536185
:102BD8000B4A0B4B1B6943F0400313614FF4302041
:102BE80000F092F80346FB730549054B1A6941F654
:102BF800FD7313400B61FB7B18461037BD4680BD43
:102C08000020024080B584B000AF786039600423AA
:102C1800FB730023BB604FF4005000F075F80346C7
:102C2800FB73FB7B042B30D11A4A1A4B1B6943F008
:102C3800010313617B683A6892B21A804FF400501E
:102C480000F062F80346FB73FB7B042B16D17B680C
:102C58000233BB60BB681A463B681B0C9BB21380EF
:102C68004FF4005000F050F80346FB730949094B34
:102C78001A6941F6FE7313400B6106E00549054BDE
:102C88001A6941F6FE7313400B61FB7B1846103737
:102C9800BD4680BD0020024080B483B000AF78609C
:102CA800034A7B68D36000BF0C37BD4680BC7047C1
:102CB8000020024080B483B000AF0423FB71114BA5
:102CC800DB6803F00103002B02D00123FB7113E042
:102CD8000C4BDB6803F00403002B02D00223FB71CA
:102CE8000AE0084BDB6803F01003002B02D0032333
:102CF800FB7101E00423FB71FB7918460C37BD46D4
:102D080080BC70470020024080B584B000AF786076
:102D18000423FB73FFF7CEFF0346FB7306E0FFF7C0
:102D2800C9FF0346FB737B68013B7B60FB7B012B80
:102D380002D17B68002BF2D17B68002B01D10523DF
:102D4800FB73FB7B18461037BD4680BD80B489B045
:102D580000AF786039600023FB6100233B610023EA
:102D6800BB610023FB6000237B610023BB603B68E1
:102D7800DB7803F00F03FB613B68DB7803F010039B
:102D8800002B05D03B689B781A46FB691343FB610F
:102D98003B681B88DBB2002B44D07B681B687B61D7
:102DA8000023BB6138E00122BB6902FA03F3FB6030
:102DB8003B681B881A46FB6813403B613A69FB680D
:102DC8009A4226D1BB699B00FB600F22FB6802FA7E
:102DD80003F3BB60BB68DB437A6913407B61FA6924
:102DE800FB6802FA03F37A6913437B613B68DB787B
:102DF800282B05D10122BB699A407B685A6108E0FB
:102E08003B68DB78482B04D10122BB699A407B6878
:102E18001A61BB690133BB61BB69072BC3D97B68E6
:102E28007A691A603B681B88FF2B46D97B685B6808
:102E38007B610023BB613AE0BB690833012202FAD7
:102E480003F3FB603B681B881A46FB6813403B6131
:102E58003A69FB689A4227D1BB699B00FB600F2245
:102E6800FB6802FA03F3BB60BB68DB437A69134073
:102E78007B61FA69FB6802FA03F37A6913437B61A1
:102E88003B68DB78282B05D1BB69083301229A40BF
:102E98007B685A613B68DB78482B05D1BB690833EE
:102EA80001229A407B681A61BB690133BB61BB6927
:102EB800072BC1D97B687A695A6000BF2437BD46A1
:102EC80080BC704780B483B000AF78607B684FF6F1
:102ED800FF721A807B6802229A707B680422DA707B
:102EE80000BF0C37BD4680BC704700BF80B485B0BA
:102EF80000AF78600B467B800023FB737B689A6881
:102F08007B881340002B02D00123FB7301E00023D0
:102F1800FB73FB7B18461437BD4680BC704700BF67
:102F280080B483B000AF78600B467B807A887B687A
:102F38001A6100BF0C37BD4680BC704780B483B0AF
:102F480000AF78600B467B807A887B685A6100BF47
:102F58000C37BD4680BC704780B400AF134A134B92
:102F68001B6843F0010313601049104B5A68104B5B
:102F780013404B600D4A0D4B1B6823F0847323F4F8
:102F880080331360094A094B1B6823F480231360BC
:102F9800064A064B5B6823F4FE035360034B4FF469
:102FA8001F029A6000BFBD4680BC704700100240F7
:102FB8000000FFF880B485B000AF0346FB71002322
:102FC800FB600A4B1B68FB60FB6823F0F803FB609F
:102FD800FB79DB00FA681343FB60044AFB68136063
:102FE80000BF1437BD4680BC704700BF00100240C8
:102FF80080B485B000AF786039600023FB600A4B6D
:103008005B68FB60FB6823F47C13FB607A683B68B1
:103018001343FA681343FB60034AFB68536000BF1D
:103028001437BD4680BC70470010024080B483B09E
:1030380000AF0346FB71044AFB79136000BF0C37ED
:10304800BD4680BC704700BF6000424280B485B076
:1030580000AF78600023FB60094B5B68FB60FB688E
:1030680023F00303FB60FA687B681343FB60044AA0
:10307800FB68536000BF1437BD4680BC704700BF73
:103088000010024080B400AF044B5B68DBB203F071
:103098000C03DBB21846BD4680BC704700100240E6
:1030A80080B485B000AF78600023FB60094B5B6893
:1030B800FB60FB6823F0F003FB60FA687B6813434E
:1030C800FB60044AFB68536000BF1437BD4680BCF0
:1030D800704700BF0010024080B485B000AF786030
:1030E8000023FB60094B5B68FB60FB6823F4E0632B
:1030F800FB60FA687B681343FB60044AFB68536013
:1031080000BF1437BD4680BC704700BF00100240A6
:1031180080B485B000AF78600023FB60094B5B6822
:10312800FB60FB6823F46053FB607B68DB00FA6894
:103138001343FB60034AFB68536000BF1437BD4666
:1031480080BC70470010024080B485B000AF786042
:103158000023FB60094B5B68FB60FB6823F440437A
:10316800FB60FA687B681343FB60044AFB685360A2
:1031780000BF1437BD4680BC704700BF0010024036
:1031880080B487B000AF786000237B6100233B6187
:103198000023FB600023BB604C4B5B6803F00C030F
:1031A8007B617B69042B07D0082B09D0002B33D116
:1031B8007B68474A1A6033E07B68454A1A602FE00B
:1031C800424B5B6803F470133B61404B5B6803F44C
:1031D8008033FB603B699B0C02333B61FB68002B2F
:1031E80006D13B693B4A02FB03F27B681A6017E091
:1031F800364B5B6803F40033002B06D03B69354A35
:1032080002FB03F27B681A600AE03B69304A02FB62
:1032180003F27B681A6003E07B682D4A1A6000BFDE
:103228002A4B5B6803F0F0037B617B691B097B61B8
:10323800294A7B6913441B78DBB2BB607B681A6838
:10324800BB68DA407B685A60204B5B6803F4E06334
:103258007B617B691B0A7B611F4A7B6913441B786E
:10326800DBB2BB607B685A68BB68DA407B689A60EF
:10327800164B5B6803F460537B617B69DB0A7B61F7
:10328800154A7B6913441B78DBB2BB607B685A68BC
:10329800BB68DA407B68DA600C4B5B6803F4404338
:1032A8007B617B699B0B7B610C4A7B6913441B78B0
:1032B800DBB2BB607B68DA68BB68B2FBF3F27B68A1
:1032C8001A6100BF1C37BD4680BC70470010024021
:1032D80000127A0000093D000000002010000020C4
:1032E80080B483B000AF78600B46FB70FB78002B8E
:1032F80006D00949084B5A697B6813434B6106E0BD
:103308000549054B5A697B68DB4313404B6100BF95
:103318000C37BD4680BC70470010024080B483B0B3
:1033280000AF78600B46FB70FB78002B06D009498C
:10333800084B9A697B6813438B6106E00549054B86
:103348009A697B68DB4313408B6100BF0C37BD462D
:1033580080BC70470010024080B483B000AF786032
:103368000B46FB70FB78002B06D00949084BDA693D
:103378007B681343CB6106E00549054BDA697B6836
:10338800DB431340CB6100BF0C37BD4680BC7047A0
:103398000010024080B483B000AF78600B46FB7029
:1033A800FB78002B06D00949084BDA687B68134381
:1033B800CB6006E00549054BDA687B68DB431340C0
:1033C800CB6000BF0C37BD4680BC70470010024080
:1033D80080B487B000AF0346FB710023FB60002375
:1033E8007B610023FB74FB795B09DBB2FB60FB6844
:1033F800012B03D1124B1B687B6109E0FB68022B90
:1034080003D10F4B1B6A7B6102E00D4B5B6A7B614A
:10341800FB7903F01F03FB607A69FB6822FA03F368
:1034280003F00103002B02D00123FB7401E0002309
:10343800FB74FB7C18461C37BD4680BC704700BF38
:103448000010024080B485B000AF78603960002376
:10345800FB817B681B88FB817B682E4A934213D0D3
:103468007B682D4A93420FD07B68B3F1804F0BD015
:103478007B682A4A934207D07B68294A934203D043
:103488007B68284A934208D1FB8923F07003FB81AB
:103498003B685A88FB891343FB817B68224A934225
:1034A8000CD07B68214A934208D0FB8923F44073EF
:1034B800FB813B68DA88FB891343FB817B68FA89C7
:1034C8001A803B689A887B689A853B681A887B686B
:1034D8001A857B680F4A93420FD07B680E4A934245
:1034E8000BD07B68124A934207D07B68114A9342FB
:1034F80003D07B68104A934204D13B681B7A9AB286
:103508007B681A867B6801229A8200BF1437BD4601
:1035180080BC7047002C014000340140000400408A
:1035280000080040000C004000100040001400405B
:1035380000400140004401400048014080B485B08B
:1035480000AF7860396000237B810023FB81002372
:10355800BB817B681B8C9BB223F001039AB27B680A
:103568001A847B681B8CFB817B689B88BB817B688A
:103578001B8B7B817B8923F070037B817B8923F004
:1035880003037B813B681A887B8913437B81FB8912
:1035980023F00203FB813B681A89FB891343FB81F3
:1035A8003B685A88FB891343FB817B68244A934212
:1035B8000FD07B68234A93420BD07B68224A934200
:1035C80007D07B68214A934203D07B68204A934204
:1035D80023D1FB8923F00803FB813B685A89FB89C7
:1035E8001343FB81FB8923F00403FB813B689A8822
:1035F800FB891343FB81BB8923F48073BB81BB899F
:1036080023F40073BB813B689A89BB891343BB8150
:103618003B68DA89BB891343BB817B68BA899A8086
:103628007B687A891A833B68DA887B689A867B6824
:10363800FA891A8400BF1437BD4680BC704700BFA2
:10364800002C01400034014000400140004401408A
:103658000048014080B485B000AF7860396000232D
:103668007B810023FB810023BB817B681B8C9BB281
:1036780023F480739AB27B681A847B681B8CFB8165
:103688007B689B88BB817B689B8B7B817B8923F0D4
:1036980070037B817B8923F003037B813B681A8855
:1036A8007B8913437B81FB8923F40073FB813B688F
:1036B8001B891B029AB2FB891343FB813B685B8819
:1036C8001B029AB2FB891343FB817B68224A93420F
:1036D80003D07B68214A93422BD1FB8923F40063F2
:1036E800FB813B685B891B029AB2FB891343FB8110
:1036F800FB8923F48063FB813B689B881B029AB299
:10370800FB891343FB81BB8923F48053BB81BB89AD
:1037180023F40053BB813B689B891B019AB2BB8988
:103728001343BB813B68DB891B019AB2BB891343F6
:10373800BB817B68BA899A807B687A899A833B685F
:10374800DA887B689A877B68FA891A8400BF1437FD
:10375800BD4680BC704700BF002C014000340140CA
:1037680080B485B000AF786039600023BB81002346
:103778007B810023FB817B681B8C9BB223F48053E5
:103788009AB27B681A847B681B8C7B817B689B88D8
:10379800FB817B689B8BBB81BB8923F4E043BB81A6
:1037A800BB8923F44073BB813B681B881B029AB218
:1037B800BB891343BB817B8923F400537B813B681E
:1037C8001B891B039AB27B8913437B813B685B8807
:1037D8001B039AB27B8913437B817B68124A93420D
:1037E80003D07B68114A93420AD1FB8923F48043B2
:1037F800FB813B689B899B019AB2FB891343FB8140
:103808007B68FA899A807B68BA899A833B68DA88E8
:103818007B68A3F840207B687A891A8400BF143734
:10382800BD4680BC704700BF002C014000340140F9
:1038380080B483B000AF78600B46FB70FB78002B38
:1038480008D07B681B889BB243F001039AB27B685F
:103858001A8007E07B681B889BB223F001039AB2A9
:103868007B681A8000BF0C37BD4680BC704700BF1C
:1038780080B483B000AF78600B46FB70FB78002BF8
:103888000CD07B68B3F844309BB26FEA43436FEACD
:1038980053439AB27B68A3F8442009E07B68B3F8E5
:1038A80044309BB2C3F30E039AB27B68A3F844205A
:1038B80000BF0C37BD4680BC704700BF80B483B0E2
:1038C80000AF78600B467B8013467B707B78002BBB
:1038D80008D07B689B899AB27B8813439AB27B682D
:1038E8009A8109E07B689B899AB27B88DB439BB20B
:1038F80013409AB27B689A8100BF0C37BD4680BCE2
:10390800704700BF80B483B000AF78600B467B80FF
:1039180013463B807B687A881A857B683A889A8246
:1039280000BF0C37BD4680BC704700BF80B485B06F
:1039380000AF78600B467B800023FB817B681B8B84
:10394800FB81FB8923F00803FB81FA897B881343F9
:10395800FB817B68FA891A8300BF1437BD4680BC97
:10396800704700BF80B485B000AF78600B467B809D
:103978000023FB817B689B8BFB81FB8923F0080379
:10398800FB81FA897B881343FB817B68FA899A83D8
:1039980000BF1437BD4680BC704700BF80B483B0F9
:1039A80000AF78600B467B807B687A889A8500BF79
:1039B8000C37BD4680BC704780B483B000AF7860D8
:1039C8000B467B807B687A88A3F8402000BF0C37C1
:1039D800BD4680BC704700BF80B485B000AF78603A
:1039E8000B467B800023FB730023BB8100237B8174
:1039F8007B681B8A9AB27B881340BB817B689B8952
:103A08009AB27B8813407B81BB89002B05D07B89C8
:103A1800002B02D00123FB7301E00023FB73FB7B27
:103A280018461437BD4680BC704700BF80B483B0C9
:103A380000AF78600B467B807B88DB439AB27B685B
:103A48001A8200BF0C37BD4680BC704780B58CB069
:103A580000AF786039600023FB620023BB6200235B
:103A68007B6200233B620023FB617B68FB617B6810
:103A78001B8A9BB2FB62FA6A4CF6FF731340FB6227
:103A88003B68DB881A46FB6A1343FB62FB6A9AB2FF
:103A98007B681A827B689B899BB2FB62FA6A4EF646
:103AA800F3131340FB623B689A883B681B891343F6
:103AB8009AB23B685B8913439BB21A46FB6A13436D
:103AC800FB62FB6A9AB27B689A817B689B8A9BB28D
:103AD800FB62FA6A4FF6FF431340FB623B689B891F
:103AE8001A46FB6A1343FB62FB6A9AB27B689A82A6
:103AF80007F108031846FFF743FBFB692F4A934277
:103B080002D17B69BB6201E03B69BB627B689B8930
:103B18009BB29BB21BB2002B0CDABA6A13469B000D
:103B280013449A001A443B681B685B00B2FBF3F32A
:103B38007B620BE0BA6A13469B0013449A001A444E
:103B48003B681B689B00B2FBF3F37B627B6A1C4AF1
:103B5800A2FB03235B091B01FB62FB6A1B096422AE
:103B680002FB03F37A6AD31A3B627B689B899BB298
:103B78009BB21BB2002B0CDA3B6ADB003233104AD3
:103B8800A2FB03235B0903F00703FA6A1343FB62F2
:103B98000BE03B6A1B013233094AA2FB03235B0992
:103BA80003F00F03FA6A1343FB62FB6A9AB27B685D
:103BB8001A8100BF3037BD4680BD00BF00380140C4
:103BC8001F85EB5180B483B000AF78607B684FF4F9
:103BD80016521A607B6800229A807B680022DA807D
:103BE8007B6800221A817B680C225A817B6800223C
:103BF8009A8100BF0C37BD4680BC704780B483B043
:103C080000AF78600B46FB70FB78002B08D07B6810
:103C18009B899BB243F400539AB27B689A8107E070
:103C28007B689B899BB223F400539AB27B689A8184
:103C380000BF0C37BD4680BC704700BF80B483B05E
:103C480000AF78600B467B8013467B707B78002B37
:103C580008D07B689B8A9AB27B8813439AB27B68A8
:103C68009A8209E07B689B8A9AB27B88DB439BB285
:103C780013409AB27B689A8200BF0C37BD4680BC5D
:103C8800704700BF80B500AFFFF766F91020FEF758
:103C98005DFF0220FEF73EFF0020FFF701FA00203B
:103CA800FFF736FA4FF48060FFF716FA4FF400403A
:103CB800FFF74AFA4FF460110020FFF799F908203E
:103CC800FFF778F90120FFF7B1F900BF3920FFF7B6
:103CD8007FFB0346002BF9D00220FFF7B7F900BF9E
:103CE800FFF7D0F90346082BFAD104F029FC00BFEE
:103CF80080BD00BF80B500AF00F004F800F00CF8FC
:103D080000BF80BD80B500AF4FF000614FF000608C
:103D1800FEF756FC00BF80BD80B590B000AF012112
:103D28000120FFF7DDFA012144F20500FFF7F6FA5A
:103D380007F13C031846FFF7C5F84FF40073BB873B
:103D4800032387F83E30182387F83F3007F13C03F8
:103D580019464448FEF7FAFF07F12C031846FFF707
:103D680031FF4FF4E133FB6200233B8600237B865F
:103D78000023BB8600233B870C23FB8607F12C031B
:103D880019463948FFF762FE3848FEF771FE374B8F
:103D9800374A1A60374A354B5A60344B10229A60BA
:103DA800324B0022DA60314B00221A612F4B8022FD
:103DB8005A612E4B00229A612C4B0022DA612B4B60
:103DC80000221A62294B4FF440525A62274B0022B4
:103DD8009A6226492848FEF70DFE3B461846FEF72C
:103DE80047FE234B3B60254B7B600023BB60402391
:103DF800FB6000233B6180237B610023BB610023C0
:103E0800FB6120233B624FF440537B620023BB627B
:103E18003B4619461A48FEF7EDFD1A4B00225A6038
:103E2800184B5B68174A1360164B1B68164A536099
:103E3800154B5B68144A1360012280210A48FFF77A
:103E4800FDFE012240210848FFF7F8FE01210C4839
:103E5800FEF738FE01210448FFF7D0FE00BF4037C7
:103E6800BD4680BD000801400038014010220020F6
:103E7800043801408C2200204400024044220020E3
:103E8800580002403C2200208422002080B584B0E3
:103E980000AF0346FB7100213348FEF713FE32489A
:103EA800FEF72CFE0346BB60BB68402B0CD10121FA
:103EB8002D48FEF707FE00BF2B48FEF71FFE0346FE
:103EC800BB60402BF8D0E6E700BF284B1B68402BAF
:103ED8001FD1BB68C3F14003FB60244B00221A606A
:103EE80011E0224B1B68214A1168FA680A441F49ED
:103EF8000A44117A1D4A13440A461A721B4B1B685E
:103F080001331A4A1360194B1A68FB6813443F2B94
:103F1800E7D9164B1B685A1C14490A60134A134404
:103F2800FA791A72BB680133BB60104B1B68BA6818
:103F38009B1A0E4A53600D4B5B6808330B4A1344B7
:103F48001A460B4B5A60BB681A46094BDA60084997
:103F58000548FEF74FFD01210348FEF7B3FD00BFFA
:103F68001037BD4680BD00BF4400024084220020B7
:103F78001022002080B582B000AF1448FEF7BEFDC5
:103F88000346FB80FB88C3F140031A46104B1A60B6
:103F98000F4B1A680E4B5B689A4201D1002310E060
:103FA8000B4B5B685A1C0A494A60094A13441B7A3E
:103FB8007B71074B5B68402B02D1054B00225A608E
:103FC8007B795BB218460837BD4680BD5800024071
:103FD8003C22002080B582B000AF00BFFFF7CAFFC7
:103FE8000346DBB21A46FA71002BF7D0FB79DBB235
:103FF8005BB218460837BD4680BD00BF80B582B0A9
:1040080000AF01211420FFF789F94FF40053BB805A
:104018001023FB710323BB713B1D19460E48FEF7A5
:1040280095FE4FF48043BB803B1D19460A48FEF7B6
:104038008DFE0123BB803B1D19460848FEF786FE0E
:104048000223BB803B1D19460448FEF77FFE00BFD4
:104058000837BD4680BD00BF001001400008014080
:1040680080B500AF4FF400510848FEF759FF4FF4F0
:1040780080410648FEF754FF01210548FEF750FF2E
:1040880002210348FEF74CFF00BF80BD001001402D
:104098000008014080B500AF4FF400510848FEF712
:1040A8004DFF4FF480410648FEF748FF01210548BF
:1040B800FEF744FF02210348FEF740FF00BF80BD22
:1040C800001001400008014080B582B000AF786060
:1040D8007B6803F00103002B05D04FF400511C4806
:1040E800FEF71EFF04E04FF400511948FEF726FFC3
:1040F8007B6803F00203002B05D04FF4804114487D
:10410800FEF70EFF04E04FF480411148FEF716FF5A
:104118007B6803F00403002B04D001210D48FEF74F
:10412800FFFE03E001210B48FEF708FF7B6803F060
:104138000803002B04D002210648FEF7F1FE03E035
:1041480002210448FEF7FAFE00BF0837BD4680BDCD
:10415800001001400008014080B582B000AF012185
:104168001820FFF7DBF82023BB800423FB7103230F
:10417800BB713B1D19460B48FEF7E8FD4FF4006381
:10418800BB803B1D19460848FEF7E0FD4FF48063ED
:10419800BB803B1D19460448FEF7D8FD00BF083711
:1041A800BD4680BD000C01400010014080B588B0BC
:1041B80000AF01210420FFF7B1F80823BB831823BF
:1041C800FB770323BB7707F11C0319461748FEF753
:1041D800BDFD01210820FFF7BFF840F2CF73BB8275
:1041E8003F233B820023FB8200237B8207F11003DD
:1041F80019460F48FFF726F960233B8001237B808F
:104208004FF47A73FB8000233B813B4619460848EC
:10421800FFF7A6FA01210648FFF72AFB0021044808
:10422800FFF706FB00BF2037BD4680BD00080140F0
:10423800000C004080B500AF01210248FFF7F8FAF2
:1042480000BF80BD000C004080B500AF00210248CF
:10425800FFF7EEFA00BF80BD000C004080B584B0C7
:1042680000AF78600B4A7B6892FBF3F3FB60FB6856
:104278009BB219460848FFF791FBFB68DA0F134415
:104288005B109BB219460448FFF796FB00BF103736
:10429800BD4680BD40420F00000C004080B500AF15
:1042A800FFF7C8FF4FF4FA60FFF7D8FF642000F06B
:1042B80023FD4FF47A70FFF7D1FF642000F01CFD56
:1042C800FFF7C2FF00BF80BD80B586B000AF0121F7
:1042D8004FF40170FFF722F81023BB820023FB750F
:1042E80007F1140319461A48FEF730FD1948FEF77E
:1042F8007DF900233B6000233B7100237B714FF461
:104308006023BB600023FB6001233B743B461946D6
:104318001048FEF7A5F901210E48FEF7F3F90D48FC
:10432800FEF70CFA00BF0B48FEF718FA0346002BFD
:10433800F9D10848FEF72AFA00BF0648FEF736FA10
:104348000346002BF9D100BF1837BD4680BD00BF1A
:10435800000801400024014090B587B002AF4FF03B
:104368000003FB600023BB6010E0042000F0ECFCBD
:1043780003461846FCF782FC03461946F868FCF722
:10438800C9FB0346FB60BB680133BB60BB68312BCC
:10439800EBDD3949F868FCF779FD0346FB60F868FE
:1043A800FCF7D4F830A3D3E90023FCF723F903463C
:1043B8000C4618462146FCF757FB03467B60786895
:1043C800FCF7C4F84FF000022C4BFBF75FFF0346E5
:1043D8000C461846214626A3D3E90023FCF734FAF5
:1043E80003460C46184621464FF00002244BFCF7C2
:1043F80001F903460C4618462146FCF70DFB034617
:104408003B607868FCF7A2F80A4601463B680093CF
:1044180013460A461B4804F003FA7868FCF796F836
:104428000A4601463B68009313460A46164801F0BF
:1044380027FB3B68132B0DDC144801F045FBFFF705
:104448000FFEFA2000F058FCFFF724FEFA2000F0D7
:1044580053FCF4E74FF47A7000F04EFC00BF1437B9
:10446800BD4690BDAFF300804E27A8B58D0E6C3FBA
:10447800CDCCCCCCCCCC0440000048420000244039
:1044880000005940A0EA0008B4EA0008C8EA000899
:1044980080B582B000AF01211820FEF73FFF40230E
:1044A800BB801023FB710323BB713B1D19461548C4
:1044B800FEF74CFC8023BB803B1D19461148FEF7D4
:1044C80045FC4FF48073BB803B1D19460D48FEF731
:1044D8003DFC4FF48063BB803B1D19460A48FEF73C
:1044E80035FC4FF40073BB803B1D19460548FEF7A9
:1044F8002DFC00F01FF800F013F800BF0837BD4688
:1045080080BD00BF00100140000C014080B500AF25
:1045180040210248FEF704FD00BF80BD00100140A5
:1045280080B500AF40210248FEF708FD00BF80BDFE
:104538000010014080B500AF80210548FEF7F0FC6F
:104548004FF480710248FEF7F9FC00BF80BD00BF40
:104558000010014080B500AF80210548FEF7EEFC51
:104568004FF480710248FEF7DBFC00BF80BD00BF3E
:104578000010014080B500AF80210548FEF7DEFC41
:104588004FF480710248FEF7D9FC00BF80BD00BF20
:104598000010014080B500AF80210548FEF7C0FC3F
:1045A8004FF480710248FEF7BBFC00BF80BD00BF1E
:1045B8000010014080B588B000AF01210120FEF74E
:1045C800CBFE09233B8341F6FF03BB8200237B8399
:1045D8000023FB8200233B7707F1140319464FF0B1
:1045E8008040FEF72FFF1023BB800023FB800023B1
:1045F8007B813B1D19464FF08040FFF72BF80021C7
:104608004FF08040FFF7AEF9012208214FF08040BB
:10461800FFF754F900214FF08040FFF709F9012115
:104628000220FEF799FE09233B8341F6FF03BB8274
:1046380000237B830023FB8200233B7707F11403CD
:1046480019460F48FEF7FEFE1023BB800023FB80AF
:1046580000237B813B1D19460948FEF7FBFF00211B
:104668000748FFF77FF9012208210548FFF726F9D7
:1046780000210348FFF7DCF800BF2037BD4680BDA6
:104688000004004080B500AF01214FF08040FFF7E3
:10469800CFF801210248FFF7CBF800BF80BD00BF6B
:1046A8000004004080B500AF00214FF08040FFF7C4
:1046B800BFF800210248FFF7BBF800BF80BD00BF6C
:1046C8000004004080B582B000AF78607B689BB280
:1046D8005B009BB2002219464FF08040FFF712F9A9
:1046E80000BF0837BD4680BD80B582B000AF786096
:1046F8007B689BB25B009BB2002219460348FFF718
:1047080001F900BF0837BD4680BD00BF0004004066
:1047180080B582B000AF01210820FEF7FFFD4023DD
:10472800BB801023FB710323BB713B1D19460F4847
:10473800FEF70CFB8023BB803B1D19460B48FEF798
:1047480005FB4FF48073BB803B1D19460748FEF7F5
:10475800FDFA4FF40073BB803B1D19460348FEF772
:10476800F5FA00BF0837BD4680BD00BF000C014008
:1047780080B500AF40210948FEF7E0FB80210748DB
:10478800FEF7DCFB4FF480710448FEF7D7FB4FF4CB
:1047980000710248FEF7D2FB00BF80BD000C01404B
:1047A80080B582B000AF78607B6803F00103002B0E
:1047B80004D040211C48FEF7B3FB03E040211A480F
:1047C800FEF7BCFB7B6803F00203002B04D08021BA
:1047D8001548FEF7A5FB03E080211348FEF7AEFB62
:1047E8007B6803F00403002B05D04FF480710E485A
:1047F800FEF796FB04E04FF480710B48FEF79EFB32
:104808007B6803F00803002B05D04FF400710648BD
:10481800FEF786FB04E04FF400710348FEF78EFBB9
:1048280000BF0837BD4680BD000C014080B586B08A
:1048380000AF01214FF40470FEF770FD0123BB8225
:104848000023FB7507F1140319462648FEF77EFA84
:104858000223BB8207F1140319462248FEF776FAB1
:104868000423BB8207F1140319461E48FEF76EFAAB
:104878000823BB8207F1140319461A48FEF766FAA3
:104888001948FDF7B3FE00233B6000233B7100236A
:104898007B714FF46023BB600023FB6001233B74F2
:1048A8003B4619461048FDF7DBFE01210E48FDF78F
:1048B80029FF0D48FDF742FF00BF0B48FDF74EFFEB
:1048C8000346002BF9D10848FDF760FF00BF0648F2
:1048D800FDF76CFF0346002BF9D100BF1837BD4622
:1048E80080BD00BF001001400024014080B584B0A5
:1048F80000AF7860FFF73CFF322000F0D1F978680C
:1049080000F022FAB8607B680A3B032B00F24A8168
:1049180001A252F823F000BF31490008CF4900082E
:104928006F4A00080F4B00080120FFF739FF3220BB
:1049380000F0B6F9786800F007FA0246BB68D31AA7
:10494800FB60FB68002B01DA0023FB60FFF710FF18
:10495800974B1B68964A5360954AFB681360944BC3
:104968001A68934B5B68D31A002BB8BF5B42904A16
:1049780053618F4B1A688F4B5B689A4203DD8C4BEF
:104988000122DA6002E08A4B0022DA60884B1A685A
:10499800884B9B699A420EDD854B01221A61844B34
:1049A8001A68844B9B69D31A1846FCF767F90246C4
:1049B8007F4B9A60F7E07E4B00221A617C4B4FF0E8
:1049C80000029A60EFE00220FFF7EAFE322000F0D2
:1049D80067F9786800F0B8F90246BB68D31AFB603B
:1049E800FB68002B01DA0023FB60FFF7C1FE724B66
:1049F8001B68714A5360704AFB6813606E4B1A68F3
:104A08006D4B5B68D31A002BB8BF5B426A4A53618F
:104A1800694B1A68674B1B689A4203DD664B012293
:104A2800DA6002E0644B0022DA60634B1A68614B7B
:104A38001B69323B9A420EDD5F4B01221A615E4BC5
:104A48001A685C4B1B69D31A1846FCF717F902461B
:104A5800594B9A60A7E0584B00221A61564B4FF009
:104A680000029A609FE00420FFF79AFE322000F0CF
:104A780017F9786800F068F90246BB68D31AFB603A
:104A8800FB68002B01DA0023FB60FFF771FE4B4B3C
:104A98001B684A4A5360494AFB681360474B1A68C7
:104AA800464B5B68D31A002BB8BF5B42434A53613D
:104AB800424B1A683F4BDB689A4203DD3F4B0122A9
:104AC800DA6002E03D4B0022DA603C4B1A68394B51
:104AD8005B69323B9A420EDD384B01221A61374B33
:104AE8001A68344B5B69D31A1846FCF7C7F80246B4
:104AF800324B9A6057E0314B00221A612F4B4FF02E
:104B080000029A604FE00820FFF74AFE322000F0CA
:104B1800C7F8786800F018F90246BB68D31AFB603A
:104B2800FB68002B01DA0023FB60FFF721FE244B12
:104B38001B68234A5360224AFB681360204B1A689B
:104B48001F4B5B68D31A002BB8BF5B421C4A5361EA
:104B58001B4B1A68174B9B689A4203DD184B0122BE
:104B6800DA6002E0164B0022DA60154B1A68114B26
:104B7800DB699A420EDD124B01221A61104B1A684A
:104B88000C4BDB69D31A1846FCF778F802460C4B35
:104B98009A6008E00A4B00221A61094B4FF00002A4
:104BA8009A6000E000BF00BF1037BD4680BD00BF5F
:104BB800580900202400002040090020880900200E
:104BC8007009002080B588B000AF01210420FEF7ED
:104BD800C3FB40F2E7333B83184B1B68184AA2FB20
:104BE80003239B0C9BB2013B9BB2BB8200237B83BC
:104BF8000023FB8200233B7707F114031946114871
:104C0800FEF720FC1023BB800023FB8000237B8160
:104C18003B1D19460B48FEF791FC00210948FEF799
:104C280085FE012202210748FEF748FE01210548BA
:104C3800FEF7FEFD00BF2037BD4680BD7400002092
:104C480083DE1B430008004080B582B000AF1E23FE
:104C58003B7100237B710023BB710123FB713B1D5A
:104C68001846FDF74BFC1C233B7101237B71002385
:104C7800BB710123FB713B1D1846FDF73FFC1D234B
:104C88003B7102237B710023BB710123FB713B1D28
:104C98001846FDF733FC00BF0837BD4680BD00BF8E
:104CA80080B485B000AF7860124B9B8C9AB27B6859
:104CB8009BB213449BB27B810023FB607B899BB230
:104CC800B3F57A7F01D30123FB6000BF094B9B8CAE
:104CD8009BB21946FB6840F2E73202FB03F30B4430
:104CE8007A8992B29342F1DB00BF1437BD4680BC8B
:104CF800704700BF0008004090B585B000AF7860ED
:104D08000F4B1C687868FBF7B9FF03460D49184636
:104D1800FCF7BCF8034619462046FBF7FBFE0346A2
:104D2800FB6000BF064B1B68F9681846FCF798F94A
:104D38000346002BF6D100BF1437BD4690BD00BF17
:104D4800C821002000007A4480B582B000AF7860A6
:104D58007B68D9B2062301220B48FDF75BFD0121D0
:104D68000948FDF73BFD00BF02210748FDF728FE73
:104D78000346002BF8D00448FDF716FE03461846F4
:104D88000837BD4680BD00BF0024014080B500AF94
:104D9800FEF778FFFEF7AEFFFFF756FFFFF72EF995
:104DA800FFF7DAF9FFF702FAFFF78EFAFFF770FB61
:104DB800FFF700FCFFF706FFFFF7AAFCFFF736FD39
:104DC80000F0B6FD002000F003FEFFF767FAFFF7DA
:104DD800C3FA00F009F90C4B19680B4B5B681A46CB
:104DE8000A4800F04DFE084B9968074BDB681A46E5
:104DF800074800F069FE4FF47A70FFF77DFF00F076
:104E080067F900BF80BD00BF14000020D8EA000881
:104E1800ECEA000880B582B000AF7860FDF7AEFE1E
:104E28000D4B04221A700D4B01221A703520FDF724
:104E380033FF7B683C33DB0203F1006303F5405327
:104E48001846FDF7ADFE03461A46034B1A7000BF1D
:104E58000837BD4680BD00BFCD220020CC220020EF
:104E680080B586B000AFF860B9607A6000237B61D6
:104E780000233B61FDF782FEFB683C33DB021A46E8
:104E8800BB681B01134403F1006303F540533B6106
:104E98007B681B139BB219463869FDF7B3FE0346BE
:104EA8001A46174B1A703B691A1D7B681B129BB276
:104EB80019461046FDF7A6FE03461A46104B1A700F
:104EC8003B6903F108027B681B119BB21946104627
:104ED800FDF798FE03461A46094B1A703B6903F121
:104EE8000C027B6803F00F0319461046FDF78AFE93
:104EF80003461A46024B1A7000BF1837BD4680BDDC
:104F0800CD22002080B489B000AF786039600023DA
:104F1800FB617B683C33DB021A463B681B01134488
:104F280003F1006303F54053FB61FB691B6803F061
:104F38000F031B03BB60FB6904331B6803F00F03FB
:104F48001B02FB60FB6908331B6803F00F031B019E
:104F58003B61FB690C331B6803F00F037B61BA6884
:104F6800FB681A433B691A437B691343BB61BB69FE
:104F780018462437BD4680BC704700BF80B582B054
:104F880000AF00210020FFF7BDFF78600020FFF789
:104F980041FF00233B607B6801331A460021002053
:104FA800FFF75EFF0F4B1B681A4601210020FFF731
:104FB80057FF0C4B5B681A4602210020FFF750FF91
:104FC800084B9B681A4603210020FFF749FF054B51
:104FD800DB681A4604210020FFF742FF00BF0837AC
:104FE800BD4680BD1400002080B500AF012100201F
:104FF800FFF788FF02460C4B1A6002210020FFF7DA
:1050080081FF0246084B5A6003210020FFF77AFF10
:105018000246054B9A6004210020FFF773FF024601
:10502800014BDA6000BF80BD1400002080B582B05B
:1050380000AF00210120FFF765FF78600120FFF72E
:10504800E9FE00233B607B6801331A4600210120FA
:10505800FFF706FF1D4B1B681A4601210120FFF7C9
:10506800FFFE1A4B5B681A4602210120FFF7F8FE83
:10507800164B9B681A4603210120FFF7F1FE134BDC
:10508800DB681A4604210120FFF7EAFE0F4B1B6973
:105098001A4605210120FFF7E3FE0C4B5B691A460F
:1050A80006210120FFF7DCFE084B9B691A46072101
:1050B8000120FFF7D5FE054BDB691A4608210120C0
:1050C800FFF7CEFE00BF0837BD4680BD2400002094
:1050D80080B500AF01210120FFF714FF02461A4BEB
:1050E8001A6002210120FFF70DFF0246164B5A6095
:1050F80003210120FFF706FF0246134B9A600421A3
:105108000120FFF7FFFE02460F4BDA600521012060
:10511800FFF7F8FE02460C4B1A6106210120FFF743
:10512800F1FE0246084B5A6107210120FFF7EAFE0B
:105138000246054B9A6108210120FFF7E3FE02466B
:10514800014BDA6100BF80BD2400002080B588B023
:1051580000AF0023FB6179E0FB69013319460220A7
:10516800FFF7D0FE7861FB69113319460220FFF77B
:10517800C9FE3861FB69213319460220FFF7C2FED8
:10518800F860FB69313319460220FFF7BBFEB860AF
:10519800FB69413319460220FFF7B4FE786000230B
:1051A800BB614DE07A69BB6942FA03F303F001027F
:1051B8002A48FB691901BB690B4403F5827340F85F
:1051C80023203A69BB6942FA03F303F0010223483A
:1051D800FB691901BB690B4403F5017340F82320EF
:1051E800FA68BB6942FA03F303F001021B48FB6942
:1051F8001901BB690B4403F5417340F82320BA68D1
:10520800BB6942FA03F303F001021448FB69190170
:10521800BB690B4403F2044340F823207A68BB6956
:1052280042FA03F303F001020C48FB691901BB6958
:105238000B4403F2045340F82320BB690133BB61DC
:10524800BB690F2BAEDDFB690133FB61FB690F2BDB
:1052580082DD00BF2037BD4680BD00BFB4090020F5
:1052680090B583B000AF02213948FEF7B5FB03467D
:10527800002B62D002213648FEF7D8FB354B1B685D
:105288001846FBF763F930A3D3E90023FBF700F8CE
:1052980003460C4618462146FBF7E6FB02462D4B13
:1052A8001A602D4B1B6A012B47D10A20FFF71EFB02
:1052B8000B20FFF71BFB0C20FFF718FB0D20FFF757
:1052C80015FB264BDB68DA00254BDB689B001A438D
:1052D800244BDB685B001A43234BDB6813437B607A
:1052E8007868FEF7F1FE1C4B5A681B4BDB681946C1
:1052F8001046FBF70DFC03461A46174B5A60164B2F
:105308005A68154B9B6819461046FBF7A9FE0346D9
:10531800002B04D0104B9B680F4A53600BE00E4BD8
:105328005B6812491846FBF7B9FE0346002B02D00A
:10533800094B0E4A5A6002F087FE00BF0C37BD4683
:1053480090BD00BFAFF30080FCA9F1D24D62503F81
:1053580000080040C82100204400002070090020F7
:1053680088090020400900205809002000803B459A
:1053780080B500AF08214FF08040FEF72DFB0346B3
:10538800002B1ED008214FF08040FEF74FFB0E4B3C
:105398001B68002B0DD10C4B01221A604FF4806161
:1053A8000A48FDF7BDFD0A4BDB690133084AD361A2
:1053B80007E0054B00221A604FF480610348FDF7AF
:1053C800BDFD00BF80BD00BFD0210020000C014002
:1053D8004400002080B500AF08211348FEF7FCFA0E
:1053E8000346002B1DD008210F48FEF71FFB0F4B6B
:1053F8001B68002B0DD10D4B01221A604FF4007170
:105408000B48FDF78DFD0B4B9B690133094A9361EE
:1054180007E0064B00221A604FF400710448FDF7BC
:105428008DFD00BF80BD00BF00040040D4210020D6
:10543800001001404400002080B500AF00F04CFA95
:105448004FF480411948FDF779FD4FF400411748A2
:10545800FDF774FD4FF480511448FDF76FFD0F20E0
:1054680000F056FB302000F0FBF8052000F050FB60
:10547800302000F0F5F8012000F04AFB302000F061
:10548800EFF8012000F044FB382000F0FBF808207A
:1054980000F0F8F8012000F0F5F8062000F0F2F826
:1054A8000F2000F0EFF800BF80BD00BF000C0140E6
:1054B80080B58CB000AF78604FF400416548FDF7C7
:1054C8003DFDC046C046C04600F0DAF900F058F984
:1054D800034603F47F427B681343FB62FB6A03F0D5
:1054E8000103BB62FB6A5B1003F001037B62FB6A8A
:1054F8009B1003F001033B62FB6ADB1003F001031E
:10550800FB61FB6A1B1103F00103BB61FB6A5B11C2
:1055180003F001037B61FB6A9B1103F001033B610C
:10552800FB6ADB1103F00103FB60BB6A012B05D1A9
:105538004FF400514748FDF7F3FC04E04FF40051E5
:105548004448FDF7FBFC7B6A012B04D1022141484A
:10555800FDF7E6FC03E002213E48FDF7EFFC3B6A5D
:10556800012B04D101213B48FDF7DAFC03E00121BE
:105578003848FDF7E3FCFB69012B04D120213648AC
:10558800FDF7CEFC03E020213348FDF7D7FCBB69CB
:10559800012B04D110213048FDF7C2FC03E0102193
:1055A8002D48FDF7CBFC7B69012B04D180212B48CA
:1055B800FDF7B6FC03E080212848FDF7BFFC3B69F6
:1055C800012B04D140212548FDF7AAFC03E0402126
:1055D8002248FDF7B3FCFB68012B04D120211F48AA
:1055E800FDF79EFC03E020211C48FDF7A7FC4FF4C3
:1055F80080511848FDF794FCC046C046C046C046D6
:10560800C046C046C046C046C046C046C046C04662
:10561800C046C046C046C046C046C0464FF480514A
:105628000C48FDF78BFCC046C046C046C046C04685
:10563800C046C046C046C046C046C046C046C04632
:10564800C046C046C046C046C04600BF3037BD460B
:1056580080BD00BF000C014000100140000801405F
:1056680080B582B000AF78604FF480410448FDF700
:1056780065FC7868FFF71CFF00BF0837BD4680BD92
:10568800000C014080B582B000AF786000BF00F028
:10569800CFF8034603F08003002BF8D14FF4804184
:1056A8000448FDF74BFC7868FFF702FF00BF083796
:1056B800BD4680BD000C014080B582B000AF786067
:1056C80000BF00F0B5F8034603F08003002BF8D1C3
:1056D8004FF480410448FDF723FC7868FFF7E8FEA3
:1056E80000BF0837BD4680BD000C014080B582B0C0
:1056F80000AF4FF400412148FDF712FCC046C046F8
:10570800C04600F0E9F84FF480511C48FDF708FC4A
:10571800C046C046C046C046C046C046C046C04651
:10572800C046C046C046C046C046C046C046C04641
:10573800C046C04600F024F878604FF480510F4806
:10574800FDF7FCFB4FF400410C48FDF7F7FBC046A2
:10575800C046C046C046C046C046C046C046C04611
:10576800C046C046C046C046C046C046C046C04601
:10577800C0467B6818460837BD4680BD000C01400E
:1057880080B58AB000AF00237B624FF400512548F2
:10579800FDF7ACFB03463B6202212248FDF7A6FB5E
:1057A8000346FB6101211F48FDF7A0FB0346BB61CF
:1057B80020211D48FDF79AFB03467B6110211A48FA
:1057C800FDF794FB03463B6180211848FDF78EFBEB
:1057D8000346FB6040211548FDF788FB0346BB6084
:1057E80020211248FDF782FB03467B60FB695A00C3
:1057F8003B6A1A43BB699B001A437B69DB001A4367
:105808003B691B011A43FB685B011A43BB689B0198
:105818001A437B68DB0113437B627B6A184628378F
:10582800BD4680BD000C0140001001400008014049
:1058380080B500AF4FF480410348FDF77FFBFFF7C9
:1058480055FF0346184680BD000C014080B582B064
:1058580000AF01210820FDF761FD4FF45043BB80E4
:105868000323BB711023FB713B1D19460348FDF749
:105878006DFA00BF0837BD4680BD00BF000C01406F
:1058880080B582B000AF01211C20FDF747FDE02361
:10589800BB800323BB711023FB713B1D19460B48CA
:1058A800FDF754FA42F20303BB803B1D1946084832
:1058B800FDF74CFA3023BB803B1D19460548FDF720
:1058C80045FA00BF0837BD4680BD00BF000801404B
:1058D800000C01400010014080B582B000AF0121EA
:1058E8001C20FDF71BFDE023BB800323BB710423B1
:1058F800FB713B1D19460B48FDF728FA42F20303DA
:10590800BB803B1D19460848FDF720FA3023BB80B1
:105918003B1D19460548FDF719FA00BF0837BD4673
:1059280080BD00BF00080140000C0140001001408C
:1059380080B500AFFFF78AFFFFF7CEFFFFF77CFDCA
:1059480000BF80BD80B586B000AFF860B9607A60EE
:1059580000237B617B683B61FB68012B18D1BB6826
:10596800013B43F080031846FFF78CFE0AE07B6991
:105978003A6913441B785BB21846FFF79DFE7B69B2
:1059880001337B617B693A6913441B78002BEED1A4
:10599800FB68022B18D1BB683F3343F080031846DD
:1059A800FFF770FE0AE07B693A6913441B785BB223
:1059B8001846FFF781FE7B6901337B617B693A6991
:1059C80013441B78002BEED100BF1837BD4680BDAD
:1059D800B0B588B000AF78600023FB61274B07F1B2
:1059E80008041D460FCD0FC42B6823707B68002B5D
:1059F8000BD100BFFFF71CFF034603F08003002B09
:105A0800F8D10120FFF73EFE34E07B68012B17D167
:105A18008020FFF737FE0BE007F10802FB6913440B
:105A28001B785BB21846FFF747FEFB690133FB6141
:105A380007F10802FB6913441B78002BECD119E02D
:105A48007B68022B16D1C020FFF71CFE0BE007F184
:105A58000802FB6913441B785BB21846FFF72CFE5B
:105A6800FB690133FB6107F10802FB6913441B78EA
:105A7800002BECD100BF2037BD46B0BD00EB0008BD
:105A88000FB480B592B000AF3B1D402200211846EC
:105A980002F078FE07F154037B643B1D7A6C396D84
:105AA800184604F073FB0120FFF792FF3B1D1A46CE
:105AB80001210120FFF746FF00BF4837BD46BDE87A
:105AC800804004B0704700BF0FB480B592B000AFFB
